:020000040000FA
:060000000A128A11FC2F18
:100EF2000A128A1187270A128A110A128A11A42752
:100F02000A128A117E2F0A128A110028FB308316D8
:100F1200031387000C308312031397002D308316BE
:100F22000313920006308312031392000930F50076
:100F32000230F4001C30F3000130F2002A30F100DC
:100F42000130F0000800750883120313950074083D
:100F5200F60004300310F60DFF3E031DAB2F1708F9
:100F6200CF39760497001730F800D530F7001630E5
:100F7200F600F60BBA2FF70BBA2FF80BBA2F0000B8
:100F820073088312031395007208F60004300310ED
:100F9200F60DFF3E031DC82F1708CF3976049700C0
:100FA2001730F800D530F7001630F600F60BD72FC1
:100FB200F70BD72FF80BD72F0000710883120313FA
:100FC20095007008F60004300310F60DFF3E031D75
:100FD200E52F1708CF39760497001730F800D5307F
:100FE200F7001630F600F60BF42FF70BF42FF80B80
:0E0FF200F42F0000080083010A128A11792FE3
:02400E00393F38
:00000001FF
